:020000040800F2
:1000000000200020551A00081D1A0008231A0008B5
:1000100000000000000000000000000000000000E0
:10002000000000000000000000000000291A000885
:100030000000000000000000331A00083D1A00080C
:10004000A51A000800000000A51A0008A51A00085B
:10005000A51A0008A51A0008A51A0008A51A000884
:1000600000000000A51A0008A51A0008A51A00083B
:10007000A51A0008A51A0008A51A0008000000002B
:10008000A51A0008A51A000800000000A51A00081B
:10009000A51A0008A51A0008A51A0008A51A000844
:1000A000A51A0008A51A0008A51A0008A51A000834
:1000B000A51A000800000000000000000000000079
:1000C00010B5064C2378002B07D1054B002B02D02E
:1000D000044800E000BF0123237010BD0C00002085
:1000E00000000000001B0008044B10B5002B03D0DB
:1000F0000349044800E000BF10BDC04600000000F6
:1001000010000020001B0008002243088B4274D31B
:1001100003098B425FD3030A8B4244D3030B8B4208
:1001200028D3030C8B420DD3FF22090212BA030C11
:100130008B4202D31212090265D0030B8B4219D3F2
:1001400000E0090AC30B8B4201D3CB03C01A524112
:10015000830B8B4201D38B03C01A5241430B8B425A
:1001600001D34B03C01A5241030B8B4201D30B0343
:10017000C01A5241C30A8B4201D3CB02C01A52416A
:10018000830A8B4201D38B02C01A5241430A8B422D
:1001900001D34B02C01A5241030A8B4201D30B0216
:1001A000C01A5241CDD2C3098B4201D3CB01C01A30
:1001B000524183098B4201D38B01C01A524143093A
:1001C0008B4201D34B01C01A524103098B4201D328
:1001D0000B01C01A5241C3088B4201D3CB00C01A95
:1001E000524183088B4201D38B00C01A524143080D
:1001F0008B4201D34B00C01A5241411A00D2014632
:10020000524110467047FFE701B5002000F006F8A4
:1002100002BDC0460029F7D076E770477047C04658
:1002200080B500AF074B074A126810210A431A60D5
:10023000002000F009F801F07BFB00231800BD4608
:1002400080BDC0460020024090B583B000AF78600A
:10025000144B1C68144B1B781900FA239800FFF705
:1002600053FF030019002000FFF74EFF03001800A2
:1002700000F004F9031E01D001230FE07B68032B7B
:100280000BD8796801235B420022180000F0E0F8E7
:10029000064B7A681A60002300E001231800BD466F
:1002A00003B090BD080000200400002000000020E2
:1002B00080B500AF054B1B781A00054B1B68D218A0
:1002C000034B1A60C046BD4680BDC04604000020F6
:1002D0002800002080B500AF024B1B681800BD4607
:1002E00080BDC0462800002080B584B000AF786093
:1002F000FFF7F0FF0300BB607B68FB60FB68013326
:1003000005D0094B1B781A00FB689B18FB60C046A0
:10031000FFF7E0FF0200BB68D21AFB689A42F7D3EE
:10032000C046BD4604B080BD04000020B0B582B018
:1003300000AF02003960FB1D1A70FB1D1B787F2B7C
:1003400028D82F4CFB1D1B785BB29B082C49FA1D4B
:10035000127852B29208C03292005258F91D0978B0
:10036000080003210140C900FF2088400100C94363
:1003700011403A689201FF201040FA1D12781500D2
:1003800003222A40D200904002000A43C0339B005F
:100390001A5131E01B4CFB1D1B781A000F23134030
:1003A000083B9908174AFB1D1B7818000F230340D0
:1003B000083B9B0806339B00D31804331B68FA1DC7
:1003C0001278100003220240D200FF209040020069
:1003D000D2431A403B689B01FF201840FB1D1B784D
:1003E0001D0003232B40DB00984003001A438B1DA4
:1003F0009B00E31804331A60C046BD4602B0B0BD8E
:1004000000E100E000ED00E080B582B000AF786070
:100410007B68013B0C4A934201D9012310E00B4B4E
:100420007A68013A5A6001235B4203211800FFF702
:100430007DFF064B00229A60044B07221A600023BE
:100440001800BD4602B080BDFFFFFF0010E000E0D5
:1004500080B584B000AFB9607A600F23FB18021C2E
:100460001A70BA680F23FB181B785BB211001800D2
:10047000FFF75CFFC046BD4604B080BD80B582B0CA
:1004800000AF78607B681800FFF7BEFF030018001C
:10049000BD4602B080BD000080B586B000AF786078
:1004A000396000237B614FE13B681B6801217A6959
:1004B00091400A001340FB60FB68002B00D140E133
:1004C0003B685B68012B0BD03B685B68022B07D055
:1004D0003B685B68112B03D03B685B68122B30D103
:1004E0007B689B683B617B695B0003229A40130039
:1004F000DA433B6913403B613B68DA687B695B0028
:100500009A4013003A6913433B617B683A699A60E9
:100510007B685B683B6101227B699A401300DA4388
:100520003B6913403B613B685B681B0901221A4031
:100530007B699A4013003A6913433B617B683A69CF
:100540005A607B68DB683B617B695B0003229A40F1
:100550001300DA433B6913403B613B689A687B694F
:100560005B009A4013003A6913433B617B683A6928
:10057000DA603B685B68022B03D03B685B68122B38
:1005800023D17B69DA087B6808329200D3583B613B
:100590007B69072213409B000F229A401300DA4325
:1005A0003B6913403B613B681A697B6907210B403B
:1005B0009B009A4013003A6913433B617B69DA0858
:1005C0007B68083292003969D1507B681B683B61B7
:1005D0007B695B0003229A401300DA433B691340B6
:1005E0003B613B685B6803221A407B695B009A4071
:1005F00013003A6913433B617B683A691A603B68B0
:100600005A6880235B05134000D19AE0544B544A4A
:10061000926901210A439A61514B9B69012213405F
:10062000BB60BB684F4A7B699B0802339B009B58A9
:100630003B617B69032213409B000F229A40130009
:10064000DA433B6913403B617A689023DB059A42A9
:1006500013D07B68444A93420DD07B68434A93424F
:1006600007D07B68424A934201D1032306E0052369
:1006700004E0022302E0012300E000237A69032161
:100680000A40920093403A6913433B6135497B69C4
:100690009B0802339B003A695A50364B1B683B61FA
:1006A000FB68DA433B6913403B613B685A6880232F
:1006B0005B02134003D03A69FB6813433B612D4B47
:1006C0003A691A602B4B5B683B61FB68DA433B6914
:1006D00013403B613B685A6880239B02134003D060
:1006E0003A69FB6813433B61224B3A695A60214BDC
:1006F0009B683B61FB68DA433B6913403B613B68A5
:100700005A6880235B03134003D03A69FB681343A4
:100710003B61184B3A699A60164BDB683B61FB689A
:10072000DA433B6913403B613B685A6880239B0373
:10073000134003D03A69FB6813433B610D4B3A69A0
:10074000DA607B6901337B613B681A687B69DA4058
:10075000131E00D0A8E6C046BD4606B080BDC04608
:10076000001002400000014000040048000800485A
:10077000000C00480004014080B584B000AF7860F0
:100780000A00BB1C1A807B681B69BA1C12881340C4
:1007900004D00F23FB1801221A7003E00F23FB186B
:1007A00000221A700F23FB181B781800BD4604B0F6
:1007B00080BD80B582B000AF786008001100BB1C1E
:1007C000021C1A807B1C0A1C1A707B1C1B78002BD5
:1007D00004D0BB1C1A887B689A6103E0BB1C1A8892
:1007E0007B689A62C046BD4602B080BD80B584B0C9
:1007F00000AF78600A00BB1C1A807B685B69FB60F5
:10080000BB1C1B88FA6813401A04FB68DB43B91C45
:1008100009880B401A437B689A61C046BD4604B004
:1008200080BD000080B588B000AF78607B68002B89
:1008300001D1012302E37B681B680122134000D130
:100840008DE0C44B5B680C221340042B0ED0C14BCF
:100850005B680C221340082B16D1BE4B5A688023CC
:100860005B021A4080235B029A420DD1B94B1A6891
:1008700080239B02134000D170E07B685B68002BF3
:1008800000D06BE00123D9E27B685B68012B07D1C4
:10089000B04BB04A1268802149020A431A602FE027
:1008A0007B685B68002B0CD1AA4BAA4A1268AA4944
:1008B0000A401A60A74BA74A1268A8490A401A6062
:1008C0001EE07B685B68052B0ED1A24BA14A126823
:1008D0008021C9020A431A609E4B9E4A12688021F9
:1008E00049020A431A600BE09A4B9A4A12689A49E5
:1008F0000A401A60974B974A126898490A401A6052
:100900007B685B68002B14D0FFF7E4FC0300BB613D
:1009100008E0FFF7DFFC0200BB69D31A642B01D9A2
:1009200003238BE28B4B1A6880239B021340F0D089
:1009300015E0FFF7CFFC0300BB6108E0FFF7CAFC3E
:100940000200BB69D31A642B01D9032376E2814BE1
:100950001A6880239B021340F0D100E0C0467B68F8
:100960001B680222134000D169E07A4B5B680C22BD
:1009700013400BD0774B5B680C221340082B1CD123
:10098000744B5A6880235B02134016D1714B1B686D
:100990000222134005D07B68DB68012B01D00123C4
:1009A0004CE26C4A6B4B1B68F8218B4319007B6847
:1009B0001B69DB000B43136041E07B68DB68002BA5
:1009C00024D0644B634A126801210A431A60FFF77E
:1009D00081FC0300BB6108E0FFF77CFC0200BB69FF
:1009E000D31A022B01D9032328E25A4B1B68022297
:1009F0001340F1D0574A574B1B68F8218B4319001D
:100A00007B681B69DB000B43136018E0514B514AB4
:100A1000126801218A431A60FFF75CFC0300BB6186
:100A200008E0FFF757FC0200BB69D31A022B01D97B
:100A3000032303E2474B1B6802221340F1D17B687A
:100A40001B680822134036D07B68DB69002B19D065
:100A5000404B404A526A01210A435A62FFF73AFC6E
:100A60000300BB6108E0FFF735FC0200BB69D31A45
:100A7000022B01D90323E1E1364B5B6A02221340CA
:100A8000F1D018E0334B334A526A01218A435A624B
:100A9000FFF720FC0300BB6108E0FFF71BFC02002E
:100AA000BB69D31A022B01D90323C7E1294B5B6A27
:100AB00002221340F1D17B681B680422134000D14D
:100AC000B6E01F23FB1800221A70224BDA6980233C
:100AD0005B05134011D11F4B1E4AD2698021490585
:100AE0000A43DA611B4BDA6980235B051340FB6024
:100AF000FB681F23FB1801221A70194B1A68802308
:100B00005B0013401AD1164B154A12688021490028
:100B10000A431A60FFF7DEFB0300BB6108E0FFF742
:100B2000D9FB0200BB69D31A642B01D9032385E1E9
:100B30000B4B1A6880235B001340F0D07B689B68E6
:100B4000012B0FD1034B034A126A01210A431A6297
:100B500036E0C04600100240FFFFFEFFFFFFFBFF34
:100B6000007000407B689B68002B0CD1B54BB54AE8
:100B7000126A01218A431A62B24BB24A126A0421F4
:100B80008A431A621CE07B689B68052B0CD1AD4B35
:100B9000AC4A126A04210A431A62AA4BA94A126A91
:100BA00001210A431A620BE0A64BA64A126A0121F0
:100BB0008A431A62A34BA34A126A04218A431A6227
:100BC0007B689B68002B14D0FFF784FB0300BB619C
:100BD00009E0FFF77FFB0200BB69D31A9A4A9342F0
:100BE00001D903232AE1974B1B6A02221340F0D05C
:100BF00013E0FFF76FFB0300BB6109E0FFF76AFB3F
:100C00000200BB69D31A904A934201D9032315E12C
:100C10008C4B1B6A02221340F0D11F23FB181B7858
:100C2000012B05D1874B874AD26988490A40DA618E
:100C30007B681B681022134063D07B685B69012BC3
:100C40002AD1804B7F4A526B04210A435A637D4B61
:100C50007C4A526B01210A435A63FFF73BFB0300B6
:100C6000BB6108E0FFF736FB0200BB69D31A022B19
:100C700001D90323E2E0734B5B6B02221340F1D0F6
:100C8000704A704B5B6BF8218B4319007B689B6942
:100C9000DB000B43536334E07B685B69053311D1A0
:100CA000684B684A526B04218A435A63654A654B14
:100CB0005B6BF8218B4319007B689B69DB000B435E
:100CC00053631EE05F4B5F4A526B04210A435A6331
:100CD0005C4B5C4A526B01218A435A63FFF7FAFA74
:100CE0000300BB6108E0FFF7F5FA0200BB69D31A05
:100CF000022B01D90323A1E0524B5B6B022213406C
:100D0000F1D17B681B6A002B00D196E04D4B5B68EC
:100D10000C221340082B00D16AE07B681B6A022B6F
:100D20004BD1484B474A126849490A401A60FFF7BD
:100D3000D1FA0300BB6108E0FFF7CCFA0200BB69FF
:100D4000D31A022B01D9032378E03E4B1A68802383
:100D50009B041340F0D13B4A3A4BDB6A0F218B4393
:100D600019007B68DB6A0B43D362364A354B5B68FC
:100D7000384919407B68986A7B685B6A03430B4378
:100D80005360304B2F4A1268802149040A431A608D
:100D9000FFF7A0FA0300BB6108E0FFF79BFA02002F
:100DA000BB69D31A022B01D9032347E0254B1A68EC
:100DB00080239B041340F0D03FE0224B214A12686D
:100DC00023490A401A60FFF785FA0300BB6108E077
:100DD000FFF780FA0200BB69D31A022B01D9032363
:100DE0002CE0184B1A6880239B041340F0D124E0B8
:100DF0007B681B6A012B01D101231FE0114B5B684B
:100E00007B61104BDB6A3B617A6980235B021A408D
:100E10007B685B6A9A420ED13B690F221A407B685D
:100E2000DB6A9A4207D17A69F0239B031A407B68F8
:100E30009B6A9A4201D0012300E000231800BD46BE
:100E400008B080BD0010024088130000FFFFFFEFD4
:100E5000FFFFFFFEFFFFC2FF80B584B000AF7860E8
:100E600039607B68002B01D10123B2E05B4B1B682A
:100E700001221A403B689A4211D2584B574A1268D5
:100E800001218A4311003A680A431A60534B1B68D8
:100E900001221A403B689A4201D0012399E07B6805
:100EA0001B680222134015D07B681B680422134084
:100EB00006D04B4B4A4A5268E021C9000A435A60A7
:100EC000474A474B5B68F0218B4319007B689B685E
:100ED0000B4353607B681B680122134040D07B6842
:100EE0005B68012B07D13E4B1A6880239B0213409D
:100EF00014D101236DE07B685B68022B07D1384B6E
:100F00001A6880239B04134008D1012361E0344B0D
:100F10001B680222134001D101235AE0304A304BB2
:100F20005B6803218B4319007B685B680B4353604C
:100F3000FFF7D0F90300FB6009E0FFF7CBF90200EF
:100F4000FB68D31A274A934201D9032341E0244B7B
:100F50005B680C221A407B685B689B009A42ECD16C
:100F60001E4B1B6801221A403B689A4211D91B4B49
:100F70001A4A126801218A4311003A680A431A602A
:100F8000164B1B6801221A403B689A4201D001238C
:100F90001FE07B681B680422134008D0104A104BE6
:100FA0005B68114919407B68DB680B43536000F0B4
:100FB00021F801000A4B5B681B090F2213400B4A02
:100FC000D35C0A00DA400A4B1A600020FFF73CF9B4
:100FD00000231800BD4604B080BDC046002002407A
:100FE0000010024088130000FFF8FFFF381B0008C4
:100FF0000800002090B58FB000AF1423FB18284ADA
:1010000013CA13C312681A603B1D264A13CA13C3BE
:1010100012681A600023FB620023BB6200237B631B
:1010200000237B6200233B631F4B5B68FB62FB6A10
:101030000C221340042B02D0082B03D027E01B4BBB
:101040003B6327E0FB6A9B0C0F2213401422BA1863
:10105000D35C7B62144BDB6A0F2213403A1DD35CD6
:10106000BB62FA6A80235B02134009D0B96A0F4859
:10107000FFF74AF803001A007B6A53437B6303E0DF
:101080007B6A0B4A53437B637B6B3B6302E0074BFA
:101090003B63C0463B6B1800BD460FB090BDC046D9
:1010A000181B0008281B00080010024000127A00DC
:1010B00000093D0080B500AF024B1B681800BD461B
:1010C00080BDC0460800002080B500AFFFF7F2FFEA
:1010D0000100064B5B681B0A07221340044AD35CDD
:1010E000D9400B001800BD4680BDC046001002402C
:1010F000481B000880B582B000AF78607B68002B89
:1011000001D1012344E07B689B6F002B07D17B68F2
:101110007422002199547B68180000F02DFC7B6834
:1011200024229A677B681B687A681268126801211A
:101130008A431A607B68180000F030F80300012B26
:1011400001D1012324E07B685B6A002B03D07B681C
:10115000180000F061F97B681B687A6812685268B1
:101160000D490A405A607B681B687A681268926869
:1011700008218A439A607B681B687A681268126843
:1011800001210A431A607B68180000F0F1F903009E
:101190001800BD4602B080BDFFF7FFFF80B588B0E4
:1011A00000AF78601E23FB1800221A707B689A68D3
:1011B0007B681B691A437B685B691A437B68DB6940
:1011C00013437B617B681B687A68126812688A49DE
:1011D00011407A690A431A607B681B687A68126852
:1011E0005268864911407A68D2680A435A607B681F
:1011F0009B697B617B681B6A7A6913437B617B68AF
:101200001B687A68126892687D4911407A690A43BE
:101210009A607B681B687B4A934225D17A4B1B6B93
:1012200003221340012B0FD004D3022B11D0032B28
:1012300005D013E01F23FB1800221A7022E01F23A1
:10124000FB1802221A701DE01F23FB1804221A70DB
:1012500018E01F23FB1808221A7013E01F23FB1845
:1012600010221A70C0460DE07B681B68674A9342E3
:1012700004D11F23FB1800221A7003E01F23FB1860
:1012800010221A707B68DA6980231B029A425FD1B0
:101290001F23FB181B78022B0DD002DC002B05D07E
:1012A00015E0042B0AD0082B0DD010E0FFF70CFF3F
:1012B0000300BB6112E0564BBB610FE0FFF79AFEE3
:1012C0000300BB610AE080231B02BB6106E0002330
:1012D000BB611E23FB1801221A70C046BB69002B9C
:1012E00000D17CE0BB695A007B685B685B08D21860
:1012F0007B685B6819001000FEF706FF03009BB2D5
:101300003B613B690F2B1ED93B69424A93421AD875
:101310003B699AB20E23FB180F218A431A803B695E
:101320005B089BB20722134099B20E23FB180E22D2
:10133000BA1812880A431A807B681B680E22BA18F2
:101340001288DA604BE01E23FB1801221A7046E077
:101350001F23FB181B78022B0DD002DC002B05D0BD
:1013600015E0042B0AD0082B0DD010E0FFF7ACFEDF
:101370000300BB6112E0264BBB610FE0FFF73AFEB2
:101380000300BB610AE080231B02BB6106E000236F
:10139000BB611E23FB1801221A70C046BB69002BDB
:1013A0001DD07B685B685A08BB69D2187B685B6894
:1013B00019001000FEF7A8FE03009BB23B613B69D9
:1013C0000F2B08D93B69134A934204D87B681B68EA
:1013D0003A69DA6003E01E23FB1801221A707B6869
:1013E00000225A667B6800229A661E23FB181B782F
:1013F0001800BD4608B080BDF369FFFFFFCFFFFFB7
:10140000FFF4FFFF0038014000100240004400409C
:1014100000127A00FFFF000080B582B000AF786054
:101420007B685B6A012213400AD07B681B687A687C
:1014300012685268454911407A68926A0A435A60B4
:101440007B685B6A022213400AD07B681B687A685B
:10145000126852683E4911407A68D26A0A435A605B
:101460007B685B6A042213400AD07B681B687A6839
:1014700012685268374911407A68126B0A435A6001
:101480007B685B6A082213400AD07B681B687A6815
:1014900012685268304911407A68526B0A435A60A8
:1014A0007B685B6A102213400AD07B681B687A68ED
:1014B00012689268294911407A68926B0A439A60CF
:1014C0007B685B6A202213400AD07B681B687A68BD
:1014D00012689268224911407A68D26B0A439A6076
:1014E0007B685B6A402213401BD07B681B687A686C
:1014F000126852681B4911407A68126C0A435A609C
:101500007B681A6C80235B039A420AD17B681B6854
:101510007A6812685268144911407A68526C0A431A
:101520005A607B685B6A802213400AD07B681B6824
:101530007A68126852680D4911407A68926C0A43C1
:101540005A60C046BD4602B080BDC046FFFFFDFFE9
:10155000FFFFFEFFFFFFFBFFFF7FFFFFFFEFFFFF30
:10156000FFDFFFFFFFFFEFFFFFFF9FFFFFFFF7FF23
:1015700080B586B002AF78607B68802200219950E8
:10158000FEF7A8FE0300FB607B681B681B6808224F
:101590001340082B0DD1FA68802399037868184B03
:1015A00000931300002200F02DF8031E01D0032346
:1015B00022E07B681B681B6804221340042B0DD1BA
:1015C000FA688023D90378680D4B0093130000223A
:1015D00000F018F8031E01D003230DE07B682022E1
:1015E0009A677B682022DA677B6800221A667B682C
:1015F00074220021995400231800BD4604B080BD18
:10160000FFFFFF0180B584B000AFF860B9603B60B8
:10161000FB1D1A705EE0BB6901335BD0FEF75AFE1A
:1016200002003B68D21ABB699A4202D8BB69002B00
:101630001BD1FB681B68FA68126812682F490A40C0
:101640001A60FB681B68FA681268926801218A4375
:101650009A60FB6820229A67FB682022DA67FB68A1
:10166000742200219954032344E0FB681B681B6823
:10167000042213402ED0FB681B68DA6980231B010B
:101680001A4080231B019A4224D1FB681B688022E8
:1016900012011A62FB681B68FA681268126817491F
:1016A0000A401A60FB681B68FA6812689268012198
:1016B0008A439A60FB6820229A67FB682022DA67D7
:1016C000FB68802220219950FB68742200219954E4
:1016D00003230FE0FB681B68DB69BA681A40BB682C
:1016E000D31A5A425341DBB21A00FB1D1B789A42AF
:1016F00091D000231800BD4604B080BD5FFEFFFFFF
:1017000080B500AFFEF78CFD00F01AF800F09AF8F3
:1017100000F068F880239B01084A19001000FFF7C9
:101720002BF8031EF6D19023DB0520211800FFF7CC
:101730005DF8C820FEF7D8FDECE7C0460008004879
:1017400080B590B000AF1023FB18180030231A00AA
:10175000002100F0CDF93B00180010231A000021F1
:1017600000F0C6F91023FB1802221A601023FB18A0
:101770000122DA601023FB1810221A611023FB18D3
:1017800002221A621023FB1800225A621023FB184F
:10179000A02292039A621023FB180022DA6210231F
:1017A000FB181800FFF73EF8031E01D000F0BAF84E
:1017B0003B0007221A603B0002225A603B000022D5
:1017C0009A603B000022DA603B0001211800FFF71D
:1017D00043FB031E01D000F0A5F8C046BD4610B083
:1017E00080BD000080B500AF144B154A1A60134B42
:1017F000962212025A60114B00229A600F4B00226F
:10180000DA600E4B00221A610C4B0C225A610B4B12
:1018100000229A61094B0022DA61084B00221A6209
:10182000064B00225A62054B1800FFF763FC031EAB
:1018300001D000F077F8C046BD4680BD2C000020E6
:101840000044004080B588B000AF0C23FB1818009E
:1018500014231A00002100F04BF9304B2F4A526933
:10186000802109030A435A612C4B5A6980231B03C8
:101870001340BB60BB68294B284A52698021C903C9
:101880000A435A61254B5A698023DB0313407B606E
:101890007B68224B214A5269802189020A435A619E
:1018A0001E4B5A6980239B0213403B603B68902388
:1018B000DB05002220211800FEF77BFF0C23FB181C
:1018C000802292011A600C23FB1800225A600C231C
:1018D000FB1801229A600C23FB18114A1900100012
:1018E000FEF7DAFD0C23FB1820221A600C23FB18EC
:1018F00001225A600C23FB1800229A600C23FB186B
:101900000022DA600C23FA189023DB05110018007E
:10191000FEF7C2FDC046BD4608B080BD00100240C3
:101920000008004880B500AFC046BD4680BD00003D
:1019300080B582B000AF0F4B0E4A926901210A4375
:101940009A610C4B9B69012213407B607B68094BB9
:10195000084AD269802149050A43DA61054BDA69F0
:1019600080235B0513403B603B68C046BD4602B028
:1019700080BDC0460010024080B58AB000AF7860DC
:101980001423FB18180014231A00002100F0B0F8EB
:101990007B681B681F4A934237D11F4B1E4AD2698E
:1019A000802189020A43DA611B4BDA6980239B029A
:1019B00013403B613B69184B174A526980218902E9
:1019C0000A435A61144B5A6980239B021340FB60FF
:1019D000FB681423FB180C221A601423FB18022244
:1019E0005A601423FB1800229A601423FB1800226B
:1019F000DA601423FB1801221A611423FA189023C9
:101A0000DB0511001800FEF747FDC046BD460AB0D1
:101A100080BDC046004400400010024080B500AFC9
:101A2000FEE780B500AFFEE780B500AFC046BD461B
:101A300080BD80B500AFC046BD4680BD80B500AF5B
:101A4000FEF736FCC046BD4680BD80B500AFC0463F
:101A5000BD4680BD0D4885460D480E490E4A0023FF
:101A600002E0D458C4500433C4188C42F9D30B4A52
:101A70000B4C002301E013600432A242FBD3FFF7BA
:101A8000E4FF00F011F8FFF73BFEFEE70020002026
:101A9000000000200C000020581B00080C00002053
:101AA000B0000020FEE7000070B500260C4D0D4C84
:101AB000641BA410A64209D1002600F021F80A4DAB
:101AC0000A4C641BA410A64205D170BDB300EB58AC
:101AD00098470136EEE7B300EB5898470136F2E736
:101AE000501B0008501B0008501B0008541B000826
:101AF00003008218934200D1704719700133F9E74F
:101B0000F8B5C046F8BC08BC9E467047F8B5C0465C
:081B1000F8BC08BC9E467047BA
:101B180002030405060708090A0B0C0D0E0F101026
:101B28000102030405060708090A0B0C0D0E0F1025
:101B38000000000000000000010203040607080975
:081B480000000000010203048B
:041B5000E9000008A0
:041B5400C1000008C4
:0C1B5800040000000100000000127A00F0
:0400000508001A5580
:00000001FF
